{
  "contractName": "DrBoosGhosts",
  "abi": [
    {
      "inputs": [],
      "stateMutability": "nonpayable",
      "type": "constructor"
    },
    {
      "anonymous": false,
      "inputs": [
        {
          "indexed": true,
          "internalType": "address",
          "name": "owner",
          "type": "address"
        },
        {
          "indexed": true,
          "internalType": "address",
          "name": "approved",
          "type": "address"
        },
        {
          "indexed": true,
          "internalType": "uint256",
          "name": "tokenId",
          "type": "uint256"
        }
      ],
      "name": "Approval",
      "type": "event"
    },
    {
      "anonymous": false,
      "inputs": [
        {
          "indexed": true,
          "internalType": "address",
          "name": "owner",
          "type": "address"
        },
        {
          "indexed": true,
          "internalType": "address",
          "name": "operator",
          "type": "address"
        },
        {
          "indexed": false,
          "internalType": "bool",
          "name": "approved",
          "type": "bool"
        }
      ],
      "name": "ApprovalForAll",
      "type": "event"
    },
    {
      "anonymous": false,
      "inputs": [
        {
          "indexed": true,
          "internalType": "address",
          "name": "_from",
          "type": "address"
        },
        {
          "indexed": true,
          "internalType": "uint256",
          "name": "mintAmount",
          "type": "uint256"
        }
      ],
      "name": "MintEvent",
      "type": "event"
    },
    {
      "anonymous": false,
      "inputs": [
        {
          "indexed": true,
          "internalType": "address",
          "name": "previousOwner",
          "type": "address"
        },
        {
          "indexed": true,
          "internalType": "address",
          "name": "newOwner",
          "type": "address"
        }
      ],
      "name": "OwnershipTransferred",
      "type": "event"
    },
    {
      "anonymous": false,
      "inputs": [
        {
          "indexed": true,
          "internalType": "address",
          "name": "from",
          "type": "address"
        },
        {
          "indexed": true,
          "internalType": "address",
          "name": "to",
          "type": "address"
        },
        {
          "indexed": true,
          "internalType": "uint256",
          "name": "tokenId",
          "type": "uint256"
        }
      ],
      "name": "Transfer",
      "type": "event"
    },
    {
      "inputs": [],
      "name": "BHAddress",
      "outputs": [
        {
          "internalType": "address",
          "name": "",
          "type": "address"
        }
      ],
      "stateMutability": "view",
      "type": "function",
      "constant": true
    },
    {
      "inputs": [],
      "name": "EbisusbayMemberPrice",
      "outputs": [
        {
          "internalType": "uint256",
          "name": "",
          "type": "uint256"
        }
      ],
      "stateMutability": "view",
      "type": "function",
      "constant": true
    },
    {
      "inputs": [
        {
          "internalType": "address",
          "name": "",
          "type": "address"
        }
      ],
      "name": "addressMintedBalance",
      "outputs": [
        {
          "internalType": "uint256",
          "name": "",
          "type": "uint256"
        }
      ],
      "stateMutability": "view",
      "type": "function",
      "constant": true
    },
    {
      "inputs": [
        {
          "internalType": "address",
          "name": "to",
          "type": "address"
        },
        {
          "internalType": "uint256",
          "name": "tokenId",
          "type": "uint256"
        }
      ],
      "name": "approve",
      "outputs": [],
      "stateMutability": "nonpayable",
      "type": "function"
    },
    {
      "inputs": [
        {
          "internalType": "address",
          "name": "owner",
          "type": "address"
        }
      ],
      "name": "balanceOf",
      "outputs": [
        {
          "internalType": "uint256",
          "name": "",
          "type": "uint256"
        }
      ],
      "stateMutability": "view",
      "type": "function",
      "constant": true
    },
    {
      "inputs": [],
      "name": "baseExtension",
      "outputs": [
        {
          "internalType": "string",
          "name": "",
          "type": "string"
        }
      ],
      "stateMutability": "view",
      "type": "function",
      "constant": true
    },
    {
      "inputs": [],
      "name": "baseURI",
      "outputs": [
        {
          "internalType": "string",
          "name": "",
          "type": "string"
        }
      ],
      "stateMutability": "view",
      "type": "function",
      "constant": true
    },
    {
      "inputs": [],
      "name": "ebisusbayFee",
      "outputs": [
        {
          "internalType": "uint256",
          "name": "",
          "type": "uint256"
        }
      ],
      "stateMutability": "view",
      "type": "function",
      "constant": true
    },
    {
      "inputs": [],
      "name": "ebisusbayWallet",
      "outputs": [
        {
          "internalType": "address",
          "name": "",
          "type": "address"
        }
      ],
      "stateMutability": "view",
      "type": "function",
      "constant": true
    },
    {
      "inputs": [
        {
          "internalType": "uint256",
          "name": "tokenId",
          "type": "uint256"
        }
      ],
      "name": "getApproved",
      "outputs": [
        {
          "internalType": "address",
          "name": "",
          "type": "address"
        }
      ],
      "stateMutability": "view",
      "type": "function",
      "constant": true
    },
    {
      "inputs": [
        {
          "internalType": "address",
          "name": "owner",
          "type": "address"
        },
        {
          "internalType": "address",
          "name": "operator",
          "type": "address"
        }
      ],
      "name": "isApprovedForAll",
      "outputs": [
        {
          "internalType": "bool",
          "name": "",
          "type": "bool"
        }
      ],
      "stateMutability": "view",
      "type": "function",
      "constant": true
    },
    {
      "inputs": [],
      "name": "marketAddress",
      "outputs": [
        {
          "internalType": "address",
          "name": "",
          "type": "address"
        }
      ],
      "stateMutability": "view",
      "type": "function",
      "constant": true
    },
    {
      "inputs": [],
      "name": "maxMintAmount",
      "outputs": [
        {
          "internalType": "uint256",
          "name": "",
          "type": "uint256"
        }
      ],
      "stateMutability": "view",
      "type": "function",
      "constant": true
    },
    {
      "inputs": [],
      "name": "maxNFTforWLUser",
      "outputs": [
        {
          "internalType": "uint256",
          "name": "",
          "type": "uint256"
        }
      ],
      "stateMutability": "view",
      "type": "function",
      "constant": true
    },
    {
      "inputs": [],
      "name": "maxSupply",
      "outputs": [
        {
          "internalType": "uint256",
          "name": "",
          "type": "uint256"
        }
      ],
      "stateMutability": "view",
      "type": "function",
      "constant": true
    },
    {
      "inputs": [],
      "name": "name",
      "outputs": [
        {
          "internalType": "string",
          "name": "",
          "type": "string"
        }
      ],
      "stateMutability": "view",
      "type": "function",
      "constant": true
    },
    {
      "inputs": [],
      "name": "nftPerAddressLimit",
      "outputs": [
        {
          "internalType": "uint256",
          "name": "",
          "type": "uint256"
        }
      ],
      "stateMutability": "view",
      "type": "function",
      "constant": true
    },
    {
      "inputs": [],
      "name": "onlyWhitelisted",
      "outputs": [
        {
          "internalType": "bool",
          "name": "",
          "type": "bool"
        }
      ],
      "stateMutability": "view",
      "type": "function",
      "constant": true
    },
    {
      "inputs": [],
      "name": "owner",
      "outputs": [
        {
          "internalType": "address",
          "name": "",
          "type": "address"
        }
      ],
      "stateMutability": "view",
      "type": "function",
      "constant": true
    },
    {
      "inputs": [
        {
          "internalType": "uint256",
          "name": "tokenId",
          "type": "uint256"
        }
      ],
      "name": "ownerOf",
      "outputs": [
        {
          "internalType": "address",
          "name": "",
          "type": "address"
        }
      ],
      "stateMutability": "view",
      "type": "function",
      "constant": true
    },
    {
      "inputs": [],
      "name": "paused",
      "outputs": [
        {
          "internalType": "bool",
          "name": "",
          "type": "bool"
        }
      ],
      "stateMutability": "view",
      "type": "function",
      "constant": true
    },
    {
      "inputs": [],
      "name": "publicCost",
      "outputs": [
        {
          "internalType": "uint256",
          "name": "",
          "type": "uint256"
        }
      ],
      "stateMutability": "view",
      "type": "function",
      "constant": true
    },
    {
      "inputs": [],
      "name": "renounceOwnership",
      "outputs": [],
      "stateMutability": "nonpayable",
      "type": "function"
    },
    {
      "inputs": [],
      "name": "reservedMintedNFT",
      "outputs": [
        {
          "internalType": "uint256",
          "name": "",
          "type": "uint256"
        }
      ],
      "stateMutability": "view",
      "type": "function",
      "constant": true
    },
    {
      "inputs": [],
      "name": "reservedNft",
      "outputs": [
        {
          "internalType": "uint256",
          "name": "",
          "type": "uint256"
        }
      ],
      "stateMutability": "view",
      "type": "function",
      "constant": true
    },
    {
      "inputs": [
        {
          "internalType": "address",
          "name": "from",
          "type": "address"
        },
        {
          "internalType": "address",
          "name": "to",
          "type": "address"
        },
        {
          "internalType": "uint256",
          "name": "tokenId",
          "type": "uint256"
        }
      ],
      "name": "safeTransferFrom",
      "outputs": [],
      "stateMutability": "nonpayable",
      "type": "function"
    },
    {
      "inputs": [
        {
          "internalType": "address",
          "name": "from",
          "type": "address"
        },
        {
          "internalType": "address",
          "name": "to",
          "type": "address"
        },
        {
          "internalType": "uint256",
          "name": "tokenId",
          "type": "uint256"
        },
        {
          "internalType": "bytes",
          "name": "_data",
          "type": "bytes"
        }
      ],
      "name": "safeTransferFrom",
      "outputs": [],
      "stateMutability": "nonpayable",
      "type": "function"
    },
    {
      "inputs": [
        {
          "internalType": "address",
          "name": "operator",
          "type": "address"
        },
        {
          "internalType": "bool",
          "name": "approved",
          "type": "bool"
        }
      ],
      "name": "setApprovalForAll",
      "outputs": [],
      "stateMutability": "nonpayable",
      "type": "function"
    },
    {
      "inputs": [
        {
          "internalType": "bytes4",
          "name": "interfaceId",
          "type": "bytes4"
        }
      ],
      "name": "supportsInterface",
      "outputs": [
        {
          "internalType": "bool",
          "name": "",
          "type": "bool"
        }
      ],
      "stateMutability": "view",
      "type": "function",
      "constant": true
    },
    {
      "inputs": [],
      "name": "symbol",
      "outputs": [
        {
          "internalType": "string",
          "name": "",
          "type": "string"
        }
      ],
      "stateMutability": "view",
      "type": "function",
      "constant": true
    },
    {
      "inputs": [
        {
          "internalType": "uint256",
          "name": "index",
          "type": "uint256"
        }
      ],
      "name": "tokenByIndex",
      "outputs": [
        {
          "internalType": "uint256",
          "name": "",
          "type": "uint256"
        }
      ],
      "stateMutability": "view",
      "type": "function",
      "constant": true
    },
    {
      "inputs": [
        {
          "internalType": "address",
          "name": "owner",
          "type": "address"
        },
        {
          "internalType": "uint256",
          "name": "index",
          "type": "uint256"
        }
      ],
      "name": "tokenOfOwnerByIndex",
      "outputs": [
        {
          "internalType": "uint256",
          "name": "",
          "type": "uint256"
        }
      ],
      "stateMutability": "view",
      "type": "function",
      "constant": true
    },
    {
      "inputs": [],
      "name": "totalSupply",
      "outputs": [
        {
          "internalType": "uint256",
          "name": "",
          "type": "uint256"
        }
      ],
      "stateMutability": "view",
      "type": "function",
      "constant": true
    },
    {
      "inputs": [
        {
          "internalType": "address",
          "name": "from",
          "type": "address"
        },
        {
          "internalType": "address",
          "name": "to",
          "type": "address"
        },
        {
          "internalType": "uint256",
          "name": "tokenId",
          "type": "uint256"
        }
      ],
      "name": "transferFrom",
      "outputs": [],
      "stateMutability": "nonpayable",
      "type": "function"
    },
    {
      "inputs": [
        {
          "internalType": "address",
          "name": "newOwner",
          "type": "address"
        }
      ],
      "name": "transferOwnership",
      "outputs": [],
      "stateMutability": "nonpayable",
      "type": "function"
    },
    {
      "inputs": [],
      "name": "whiteListCost",
      "outputs": [
        {
          "internalType": "uint256",
          "name": "",
          "type": "uint256"
        }
      ],
      "stateMutability": "view",
      "type": "function",
      "constant": true
    },
    {
      "inputs": [
        {
          "internalType": "address",
          "name": "",
          "type": "address"
        }
      ],
      "name": "whitelistedAddresses",
      "outputs": [
        {
          "internalType": "bool",
          "name": "",
          "type": "bool"
        }
      ],
      "stateMutability": "view",
      "type": "function",
      "constant": true
    },
    {
      "inputs": [
        {
          "internalType": "address",
          "name": "",
          "type": "address"
        }
      ],
      "name": "whitelistedBalance",
      "outputs": [
        {
          "internalType": "uint256",
          "name": "",
          "type": "uint256"
        }
      ],
      "stateMutability": "view",
      "type": "function",
      "constant": true
    },
    {
      "inputs": [],
      "name": "getInfo",
      "outputs": [
        {
          "components": [
            {
              "internalType": "uint256",
              "name": "regularCost",
              "type": "uint256"
            },
            {
              "internalType": "uint256",
              "name": "memberCost",
              "type": "uint256"
            },
            {
              "internalType": "uint256",
              "name": "whitelistCost",
              "type": "uint256"
            },
            {
              "internalType": "uint256",
              "name": "maxSupply",
              "type": "uint256"
            },
            {
              "internalType": "uint256",
              "name": "totalSupply",
              "type": "uint256"
            },
            {
              "internalType": "uint256",
              "name": "maxMintPerAddress",
              "type": "uint256"
            },
            {
              "internalType": "uint256",
              "name": "maxMintPerTx",
              "type": "uint256"
            }
          ],
          "internalType": "struct DrBoosGhosts.Infos",
          "name": "",
          "type": "tuple"
        }
      ],
      "stateMutability": "view",
      "type": "function",
      "constant": true
    },
    {
      "inputs": [
        {
          "internalType": "uint256",
          "name": "_mintAmount",
          "type": "uint256"
        }
      ],
      "name": "mint",
      "outputs": [],
      "stateMutability": "payable",
      "type": "function",
      "payable": true
    },
    {
      "inputs": [
        {
          "internalType": "address",
          "name": "_owner",
          "type": "address"
        }
      ],
      "name": "walletOfOwner",
      "outputs": [
        {
          "internalType": "uint256[]",
          "name": "",
          "type": "uint256[]"
        }
      ],
      "stateMutability": "view",
      "type": "function",
      "constant": true
    },
    {
      "inputs": [
        {
          "internalType": "uint256",
          "name": "tokenId",
          "type": "uint256"
        }
      ],
      "name": "tokenURI",
      "outputs": [
        {
          "internalType": "string",
          "name": "",
          "type": "string"
        }
      ],
      "stateMutability": "view",
      "type": "function",
      "constant": true
    },
    {
      "inputs": [
        {
          "internalType": "string",
          "name": "_newBaseURI",
          "type": "string"
        }
      ],
      "name": "setBaseURI",
      "outputs": [],
      "stateMutability": "nonpayable",
      "type": "function"
    },
    {
      "inputs": [
        {
          "internalType": "string",
          "name": "_newBaseExtension",
          "type": "string"
        }
      ],
      "name": "setBaseExtension",
      "outputs": [],
      "stateMutability": "nonpayable",
      "type": "function"
    },
    {
      "inputs": [
        {
          "internalType": "bool",
          "name": "_state",
          "type": "bool"
        }
      ],
      "name": "pause",
      "outputs": [],
      "stateMutability": "nonpayable",
      "type": "function"
    },
    {
      "inputs": [],
      "name": "withdraw",
      "outputs": [],
      "stateMutability": "payable",
      "type": "function",
      "payable": true
    },
    {
      "inputs": [
        {
          "internalType": "address[]",
          "name": "addresses",
          "type": "address[]"
        }
      ],
      "name": "setAllowList",
      "outputs": [],
      "stateMutability": "nonpayable",
      "type": "function"
    },
    {
      "inputs": [
        {
          "internalType": "address",
          "name": "_whitelistedAddress",
          "type": "address"
        }
      ],
      "name": "verifyUser",
      "outputs": [
        {
          "internalType": "bool",
          "name": "",
          "type": "bool"
        }
      ],
      "stateMutability": "view",
      "type": "function",
      "constant": true
    },
    {
      "inputs": [
        {
          "internalType": "bool",
          "name": "_state",
          "type": "bool"
        }
      ],
      "name": "setOnlyWhitelisted",
      "outputs": [],
      "stateMutability": "nonpayable",
      "type": "function"
    },
    {
      "inputs": [],
      "name": "getBalance",
      "outputs": [
        {
          "internalType": "uint256",
          "name": "",
          "type": "uint256"
        }
      ],
      "stateMutability": "view",
      "type": "function",
      "constant": true
    },
    {
      "inputs": [
        {
          "internalType": "address",
          "name": "_address",
          "type": "address"
        }
      ],
      "name": "isEbisusBayMember",
      "outputs": [
        {
          "internalType": "bool",
          "name": "",
          "type": "bool"
        }
      ],
      "stateMutability": "view",
      "type": "function",
      "constant": true
    },
    {
      "inputs": [
        {
          "internalType": "address",
          "name": "_address",
          "type": "address"
        }
      ],
      "name": "setMemberShipAddress",
      "outputs": [],
      "stateMutability": "nonpayable",
      "type": "function"
    },
    {
      "inputs": [
        {
          "internalType": "address",
          "name": "_address",
          "type": "address"
        }
      ],
      "name": "mintCost",
      "outputs": [
        {
          "internalType": "uint256",
          "name": "",
          "type": "uint256"
        }
      ],
      "stateMutability": "view",
      "type": "function",
      "constant": true
    },
    {
      "inputs": [
        {
          "internalType": "address",
          "name": "_address",
          "type": "address"
        }
      ],
      "name": "canMint",
      "outputs": [
        {
          "internalType": "uint256",
          "name": "",
          "type": "uint256"
        }
      ],
      "stateMutability": "view",
      "type": "function",
      "constant": true
    }
  ],
  "bytecode": "0x60c06040526005608081905264173539b7b760d91b60a09081526200002891600c919062000269565b506729a2241af62c0000600d55671bc16d674ec80000600e55670de0b6b3a7640000600f5560646010819055600a60118190556019601281905560139290925560036014556000601555601655601780546001600160a01b031990811673454cfaa623a629cc0b4017aeb85d54c42e91479d179091556018805490911673b3cb12e7f9e442ef799a2b7e92f65ab8710d7b2717905580546001600160b01b03191673570455059613388f01a5275c40bdcd2cb5390966179055348015620000ee57600080fd5b50604080518082018252600c81526b4472426f6f7347686f73747360a01b60208083019182528351808501909452600384526244424760e81b9084015281519192916200013e9160009162000269565b5080516200015490600190602084019062000269565b505050620001716200016b6200019b60201b60201c565b6200019f565b6200019560405180608001604052806053815260200162003cb360539139620001f1565b6200034c565b3390565b600a80546001600160a01b038381166001600160a01b0319831681179093556040519116919082907f8be0079c531659141344cd1fd0a4f28419497f9722a3daafe3b4186f6b6457e090600090a35050565b600a546001600160a01b03163314620002505760405162461bcd60e51b815260206004820181905260248201527f4f776e61626c653a2063616c6c6572206973206e6f7420746865206f776e6572604482015260640160405180910390fd5b80516200026590600b90602084019062000269565b5050565b82805462000277906200030f565b90600052602060002090601f0160209004810192826200029b5760008555620002e6565b82601f10620002b657805160ff1916838001178555620002e6565b82800160010185558215620002e6579182015b82811115620002e6578251825591602001919060010190620002c9565b50620002f4929150620002f8565b5090565b5b80821115620002f45760008155600101620002f9565b600181811c908216806200032457607f821691505b602082108114156200034657634e487b7160e01b600052602260045260246000fd5b50919050565b613957806200035c6000396000f3fe6080604052600436106103555760003560e01c80635cc701a1116101bb57806395d89b41116100f7578063c2ba474411610095578063d5abeb011161006f578063d5abeb011461099a578063da3ef23f146109b0578063e985e9c5146109d0578063f2fde38b14610a1957600080fd5b8063c2ba474414610945578063c668286214610965578063c87b56dd1461097a57600080fd5b8063a22cb465116100d1578063a22cb465146108cf578063a9d3f7e9146108ef578063b88d4fde1461090f578063ba7d2c761461092f57600080fd5b806395d89b41146108865780639c70b5121461089b578063a0712d68146108bc57600080fd5b8063715018a6116101645780638da5cb5b1161013e5780638da5cb5b1461081c5780638dbe817f1461083a5780639257e04414610850578063956236411461086657600080fd5b8063715018a6146107db5780637fa7c50b146107f05780638693da201461080657600080fd5b80636447c35d116101955780636447c35d146107865780636c0360eb146107a657806370a08231146107bb57600080fd5b80635cc701a11461073a57806363378f1d146107505780636352211e1461076657600080fd5b80632acc659e1161029557806348bc5b91116102335780634f6ccce71161020d5780634f6ccce71461066e57806355f804b31461068e5780635a9b0b89146106ae5780635c975abb1461071957600080fd5b806348bc5b91146106185780634d813120146106385780634dd98b131461065857600080fd5b80633c9527641161026f5780633c952764146105a35780633ccfd60b146105c357806342842e0e146105cb578063438b6300146105eb57600080fd5b80632acc659e146105365780632f745c591461055657806338ab58631461057657600080fd5b80630e7726181161030257806318cae269116102dc57806318cae269146104b35780631c838bd0146104e0578063239c70ae1461050057806323b872dd1461051657600080fd5b80630e7726181461045b57806312065fe01461047b57806318160ddd1461049e57600080fd5b806306fdde031161033357806306fdde03146103e1578063081812fc14610403578063095ea7b31461043b57600080fd5b806301ffc9a71461035a57806302329a291461038f57806306c933d8146103b1575b600080fd5b34801561036657600080fd5b5061037a61037536600461357b565b610a39565b60405190151581526020015b60405180910390f35b34801561039b57600080fd5b506103af6103aa366004613543565b610a7d565b005b3480156103bd57600080fd5b5061037a6103cc3660046132cc565b601b6020526000908152604090205460ff1681565b3480156103ed57600080fd5b506103f6610b15565b604051610386919061377f565b34801561040f57600080fd5b5061042361041e3660046135f9565b610ba7565b6040516001600160a01b039091168152602001610386565b34801561044757600080fd5b506103af610456366004613402565b610c4d565b34801561046757600080fd5b506103af6104763660046132cc565b610d7f565b34801561048757600080fd5b50610490610e08565b604051908152602001610386565b3480156104aa57600080fd5b50600854610490565b3480156104bf57600080fd5b506104906104ce3660046132cc565b601a6020526000908152604090205481565b3480156104ec57600080fd5b5061037a6104fb3660046132cc565b610e6a565b34801561050c57600080fd5b5061049060125481565b34801561052257600080fd5b506103af610531366004613318565b610f0a565b34801561054257600080fd5b506104906105513660046132cc565b610f91565b34801561056257600080fd5b50610490610571366004613402565b61100d565b34801561058257600080fd5b506104906105913660046132cc565b601c6020526000908152604090205481565b3480156105af57600080fd5b506103af6105be366004613543565b6110b5565b6103af611148565b3480156105d757600080fd5b506103af6105e6366004613318565b611216565b3480156105f757600080fd5b5061060b6106063660046132cc565b611231565b604051610386919061373b565b34801561062457600080fd5b50601754610423906001600160a01b031681565b34801561064457600080fd5b5061037a6106533660046132cc565b611335565b34801561066457600080fd5b50610490600e5481565b34801561067a57600080fd5b506104906106893660046135f9565b611482565b34801561069a57600080fd5b506103af6106a93660046135b3565b611534565b3480156106ba57600080fd5b506106c36115a5565b6040516103869190600060e082019050825182526020830151602083015260408301516040830152606083015160608301526080830151608083015260a083015160a083015260c083015160c083015292915050565b34801561072557600080fd5b5060195461037a90600160a01b900460ff1681565b34801561074657600080fd5b5061049060145481565b34801561075c57600080fd5b5061049060165481565b34801561077257600080fd5b506104236107813660046135f9565b61165f565b34801561079257600080fd5b506103af6107a136600461342b565b6116ea565b3480156107b257600080fd5b506103f6611852565b3480156107c757600080fd5b506104906107d63660046132cc565b6118e0565b3480156107e757600080fd5b506103af61197a565b3480156107fc57600080fd5b5061049060115481565b34801561081257600080fd5b50610490600d5481565b34801561082857600080fd5b50600a546001600160a01b0316610423565b34801561084657600080fd5b5061049060155481565b34801561085c57600080fd5b50610490600f5481565b34801561087257600080fd5b50601854610423906001600160a01b031681565b34801561089257600080fd5b506103f66119e0565b3480156108a757600080fd5b5060195461037a90600160a81b900460ff1681565b6103af6108ca3660046135f9565b6119ef565b3480156108db57600080fd5b506103af6108ea3660046133cc565b6120d1565b3480156108fb57600080fd5b50601954610423906001600160a01b031681565b34801561091b57600080fd5b506103af61092a366004613353565b6120dc565b34801561093b57600080fd5b5061049060135481565b34801561095157600080fd5b506104906109603660046132cc565b612164565b34801561097157600080fd5b506103f6612291565b34801561098657600080fd5b506103f66109953660046135f9565b61229e565b3480156109a657600080fd5b5061049060105481565b3480156109bc57600080fd5b506103af6109cb3660046135b3565b612389565b3480156109dc57600080fd5b5061037a6109eb3660046132e6565b6001600160a01b03918216600090815260056020908152604080832093909416825291909152205460ff1690565b348015610a2557600080fd5b506103af610a343660046132cc565b6123f6565b60006001600160e01b031982167f780e9d63000000000000000000000000000000000000000000000000000000001480610a775750610a77826124d5565b92915050565b600a546001600160a01b03163314610adc5760405162461bcd60e51b815260206004820181905260248201527f4f776e61626c653a2063616c6c6572206973206e6f7420746865206f776e657260448201526064015b60405180910390fd5b60198054911515600160a01b027fffffffffffffffffffffff00ffffffffffffffffffffffffffffffffffffffff909216919091179055565b606060008054610b2490613851565b80601f0160208091040260200160405190810160405280929190818152602001828054610b5090613851565b8015610b9d5780601f10610b7257610100808354040283529160200191610b9d565b820191906000526020600020905b815481529060010190602001808311610b8057829003601f168201915b5050505050905090565b6000818152600260205260408120546001600160a01b0316610c315760405162461bcd60e51b815260206004820152602c60248201527f4552433732313a20617070726f76656420717565727920666f72206e6f6e657860448201527f697374656e7420746f6b656e00000000000000000000000000000000000000006064820152608401610ad3565b506000908152600460205260409020546001600160a01b031690565b6000610c588261165f565b9050806001600160a01b0316836001600160a01b03161415610ce25760405162461bcd60e51b815260206004820152602160248201527f4552433732313a20617070726f76616c20746f2063757272656e74206f776e6560448201527f72000000000000000000000000000000000000000000000000000000000000006064820152608401610ad3565b336001600160a01b0382161480610cfe5750610cfe81336109eb565b610d705760405162461bcd60e51b815260206004820152603860248201527f4552433732313a20617070726f76652063616c6c6572206973206e6f74206f7760448201527f6e6572206e6f7220617070726f76656420666f7220616c6c00000000000000006064820152608401610ad3565b610d7a8383612570565b505050565b600a546001600160a01b03163314610dd95760405162461bcd60e51b815260206004820181905260248201527f4f776e61626c653a2063616c6c6572206973206e6f7420746865206f776e65726044820152606401610ad3565b6018805473ffffffffffffffffffffffffffffffffffffffff19166001600160a01b0392909216919091179055565b600a546000906001600160a01b03163314610e655760405162461bcd60e51b815260206004820181905260248201527f4f776e61626c653a2063616c6c6572206973206e6f7420746865206f776e65726044820152606401610ad3565b504790565b6018546040517fa230c5240000000000000000000000000000000000000000000000000000000081526001600160a01b0383811660048301526000921690819063a230c5249060240160206040518083038186803b158015610ecb57600080fd5b505afa158015610edf573d6000803e3d6000fd5b505050506040513d601f19601f82011682018060405250810190610f03919061355f565b9392505050565b610f1433826125eb565b610f865760405162461bcd60e51b815260206004820152603160248201527f4552433732313a207472616e736665722063616c6c6572206973206e6f74206f60448201527f776e6572206e6f7220617070726f7665640000000000000000000000000000006064820152608401610ad3565b610d7a8383836126f3565b60006001600160a01b038216610fd95760405162461bcd60e51b815260206004820152600d60248201526c06e6f742061646472657373203609c1b6044820152606401610ad3565b610fe282611335565b15610fef575050600f5490565b610ff882610e6a565b15611005575050600e5490565b5050600d5490565b6000611018836118e0565b821061108c5760405162461bcd60e51b815260206004820152602b60248201527f455243373231456e756d657261626c653a206f776e657220696e646578206f7560448201527f74206f6620626f756e64730000000000000000000000000000000000000000006064820152608401610ad3565b506001600160a01b03919091166000908152600660209081526040808320938352929052205490565b600a546001600160a01b0316331461110f5760405162461bcd60e51b815260206004820181905260248201527f4f776e61626c653a2063616c6c6572206973206e6f7420746865206f776e65726044820152606401610ad3565b60198054911515600160a81b027fffffffffffffffffffff00ffffffffffffffffffffffffffffffffffffffffff909216919091179055565b600a546001600160a01b031633146111a25760405162461bcd60e51b815260206004820181905260248201527f4f776e61626c653a2063616c6c6572206973206e6f7420746865206f776e65726044820152606401610ad3565b60006111b6600a546001600160a01b031690565b6001600160a01b03164760405160006040518083038185875af1925050503d8060008114611200576040519150601f19603f3d011682016040523d82523d6000602084013e611205565b606091505b505090508061121357600080fd5b50565b610d7a838383604051806020016040528060008152506120dc565b60606001600160a01b0382166112795760405162461bcd60e51b815260206004820152600d60248201526c06e6f742061646472657373203609c1b6044820152606401610ad3565b6000611284836118e0565b905060008167ffffffffffffffff8111156112af57634e487b7160e01b600052604160045260246000fd5b6040519080825280602002602001820160405280156112d8578160200160208202803683370190505b50905060005b8281101561132d576112f0858261100d565b82828151811061131057634e487b7160e01b600052603260045260246000fd5b6020908102919091010152806113258161388c565b9150506112de565b509392505050565b60006001600160a01b03821661137d5760405162461bcd60e51b815260206004820152600d60248201526c06e6f742061646472657373203609c1b6044820152606401610ad3565b6019546040517f438b63000000000000000000000000000000000000000000000000000000000081526001600160a01b03848116600483015290911690600090829063438b63009060240160006040518083038186803b1580156113e057600080fd5b505afa1580156113f4573d6000803e3d6000fd5b505050506040513d6000823e601f3d908101601f1916820160405261141c919081019061349b565b516001600160a01b0385166000908152601b602052604090205490915060ff16806114475750600081115b15611478576014546001600160a01b0385166000908152601c60205260409020541015611478575060019392505050565b5060009392505050565b600061148d60085490565b82106115015760405162461bcd60e51b815260206004820152602c60248201527f455243373231456e756d657261626c653a20676c6f62616c20696e646578206f60448201527f7574206f6620626f756e647300000000000000000000000000000000000000006064820152608401610ad3565b6008828154811061152257634e487b7160e01b600052603260045260246000fd5b90600052602060002001549050919050565b600a546001600160a01b0316331461158e5760405162461bcd60e51b815260206004820181905260248201527f4f776e61626c653a2063616c6c6572206973206e6f7420746865206f776e65726044820152606401610ad3565b80516115a190600b9060208401906131bf565b5050565b6115e56040518060e00160405280600081526020016000815260200160008152602001600081526020016000815260200160008152602001600081525090565b6116256040518060e00160405280600081526020016000815260200160008152602001600081526020016000815260200160008152602001600081525090565b600d548152600e546020820152600f5460408201526010546060820152600854608082015260135460a082015260125460c0820152919050565b6000818152600260205260408120546001600160a01b031680610a775760405162461bcd60e51b815260206004820152602960248201527f4552433732313a206f776e657220717565727920666f72206e6f6e657869737460448201527f656e7420746f6b656e00000000000000000000000000000000000000000000006064820152608401610ad3565b600a546001600160a01b031633146117445760405162461bcd60e51b815260206004820181905260248201527f4f776e61626c653a2063616c6c6572206973206e6f7420746865206f776e65726044820152606401610ad3565b60005b81811015610d7a57600083838381811061177157634e487b7160e01b600052603260045260246000fd5b905060200201602081019061178691906132cc565b6001600160a01b031614156117dd5760405162461bcd60e51b815260206004820152600f60248201527f496e76616c6964206164647265737300000000000000000000000000000000006044820152606401610ad3565b6001601b600085858581811061180357634e487b7160e01b600052603260045260246000fd5b905060200201602081019061181891906132cc565b6001600160a01b031681526020810191909152604001600020805460ff19169115159190911790558061184a8161388c565b915050611747565b600b805461185f90613851565b80601f016020809104026020016040519081016040528092919081815260200182805461188b90613851565b80156118d85780601f106118ad576101008083540402835291602001916118d8565b820191906000526020600020905b8154815290600101906020018083116118bb57829003601f168201915b505050505081565b60006001600160a01b03821661195e5760405162461bcd60e51b815260206004820152602a60248201527f4552433732313a2062616c616e636520717565727920666f7220746865207a6560448201527f726f2061646472657373000000000000000000000000000000000000000000006064820152608401610ad3565b506001600160a01b031660009081526003602052604090205490565b600a546001600160a01b031633146119d45760405162461bcd60e51b815260206004820181905260248201527f4f776e61626c653a2063616c6c6572206973206e6f7420746865206f776e65726044820152606401610ad3565b6119de60006128d8565b565b606060018054610b2490613851565b601954600160a01b900460ff1615611a495760405162461bcd60e51b815260206004820152601260248201527f636f6e74726163742069732070617573656400000000000000000000000000006044820152606401610ad3565b6000611a5460085490565b905060008211611aa65760405162461bcd60e51b815260206004820152601b60248201527f6e65656420746f206d696e74206174206c656173742031204e465400000000006044820152606401610ad3565b601254821115611b1d5760405162461bcd60e51b8152602060048201526024808201527f6d6178206d696e7420616d6f756e74207065722073657373696f6e206578636560448201527f65646564000000000000000000000000000000000000000000000000000000006064820152608401610ad3565b601054601554601154611b3085856137c3565b611b3a91906137c3565b611b44919061380e565b1115611b925760405162461bcd60e51b815260206004820152601660248201527f6d6178204e4654206c696d6974206578636565646564000000000000000000006044820152606401610ad3565b600a546001600160a01b0316331461200957601954600160a81b900460ff16151560011415611c1057611bc433611335565b611c105760405162461bcd60e51b815260206004820152601260248201527f6e6f7420696e2077686974656c697374656400000000000000000000000000006044820152606401610ad3565b336000908152601a6020526040902054601354611c2d84836137c3565b1115611c7b5760405162461bcd60e51b815260206004820152601c60248201527f6d6178204e4654207065722061646472657373206578636565646564000000006044820152606401610ad3565b611c8433611335565b15611de257601454336000908152601c6020526040902054611ca690856137c3565b1115611cf45760405162461bcd60e51b815260206004820152600e60248201527f6e6f20637265646974206c6566740000000000000000000000000000000000006044820152606401610ad3565b82600f54611d0291906137ef565b341015611d515760405162461bcd60e51b815260206004820152601260248201527f696e73756666696369656e742066756e647300000000000000000000000000006044820152606401610ad3565b60015b838111611ddc57336000908152601a60205260408120805491611d768361388c565b9091555050336000908152601c60205260408120805491611d968361388c565b9190505550611dca336015548360115487611db191906137c3565b611dbb91906137c3565b611dc5919061380e565b612937565b80611dd48161388c565b915050611d54565b50505050565b6000611ded33610e6a565b15611e7d5783600e54611e0091906137ef565b341015611e4f5760405162461bcd60e51b815260206004820152601260248201527f696e73756666696369656e742066756e647300000000000000000000000000006044820152606401610ad3565b606460165485600e54611e6291906137ef565b611e6c91906137ef565b611e7691906137db565b9050611f04565b83600d54611e8b91906137ef565b341015611eda5760405162461bcd60e51b815260206004820152601260248201527f696e73756666696369656e742066756e647300000000000000000000000000006044820152606401610ad3565b606460165485600d54611eed91906137ef565b611ef791906137ef565b611f0191906137db565b90505b60015b848111611f5657336000908152601a60205260408120805491611f298361388c565b9190505550611f44336015548360115488611db191906137c3565b80611f4e8161388c565b915050611f07565b50604051849033907f3fffaa5804a26fcec0d70b1d0fb0a2d0031df3a5f9c8af2127c2f4360e97b46390600090a36018546017546040517f4065da630000000000000000000000000000000000000000000000000000000081526001600160a01b0391821660048201529116908190634065da639084906024016000604051808303818588803b158015611fe957600080fd5b505af1158015611ffd573d6000803e3d6000fd5b50505050505050505050565b60008260155461201991906137c3565b601154612026919061380e565b10156120745760405162461bcd60e51b815260206004820152601760248201527f416c6c205265736572766564204e4654204d696e7465640000000000000000006044820152606401610ad3565b60015b828111610d7a57336000908152601a602052604081208054916120998361388c565b9091555050601580549060006120ae8361388c565b91905055506120bf33601554612937565b806120c98161388c565b915050612077565b6115a1338383612951565b6120e633836125eb565b6121585760405162461bcd60e51b815260206004820152603160248201527f4552433732313a207472616e736665722063616c6c6572206973206e6f74206f60448201527f776e6572206e6f7220617070726f7665640000000000000000000000000000006064820152608401610ad3565b611ddc84848484612a20565b60006001600160a01b0382166121ac5760405162461bcd60e51b815260206004820152600d60248201526c06e6f742061646472657373203609c1b6044820152606401610ad3565b60006121b760085490565b90506121c283611335565b156121ed576001600160a01b0383166000908152601c6020526040902054601454610f03919061380e565b6001600160a01b0383166000908152601a602052604081205460135461221490829061380e565b6012541015612227576012549150612238565b80601354612235919061380e565b91505b600083601054141561224c57506000612276565b60115461225990856137c3565b60155460105461226991906137c3565b612273919061380e565b90505b828110156122875795945050505050565b5090949350505050565b600c805461185f90613851565b6000818152600260205260409020546060906001600160a01b031661232b5760405162461bcd60e51b815260206004820152602f60248201527f4552433732314d657461646174613a2055524920717565727920666f72206e6f60448201527f6e6578697374656e7420746f6b656e00000000000000000000000000000000006064820152608401610ad3565b6000612335612aa9565b905060008151116123555760405180602001604052806000815250610f03565b8061235f84612ab8565b600c6040516020016123739392919061363d565b6040516020818303038152906040529392505050565b600a546001600160a01b031633146123e35760405162461bcd60e51b815260206004820181905260248201527f4f776e61626c653a2063616c6c6572206973206e6f7420746865206f776e65726044820152606401610ad3565b80516115a190600c9060208401906131bf565b600a546001600160a01b031633146124505760405162461bcd60e51b815260206004820181905260248201527f4f776e61626c653a2063616c6c6572206973206e6f7420746865206f776e65726044820152606401610ad3565b6001600160a01b0381166124cc5760405162461bcd60e51b815260206004820152602660248201527f4f776e61626c653a206e6577206f776e657220697320746865207a65726f206160448201527f64647265737300000000000000000000000000000000000000000000000000006064820152608401610ad3565b611213816128d8565b60006001600160e01b031982167f80ac58cd00000000000000000000000000000000000000000000000000000000148061253857506001600160e01b031982167f5b5e139f00000000000000000000000000000000000000000000000000000000145b80610a7757507f01ffc9a7000000000000000000000000000000000000000000000000000000006001600160e01b0319831614610a77565b6000818152600460205260409020805473ffffffffffffffffffffffffffffffffffffffff19166001600160a01b03841690811790915581906125b28261165f565b6001600160a01b03167f8c5be1e5ebec7d5bd14f71427d1e84f3dd0314c0f7b2291e5b200ac8c7c3b92560405160405180910390a45050565b6000818152600260205260408120546001600160a01b03166126755760405162461bcd60e51b815260206004820152602c60248201527f4552433732313a206f70657261746f7220717565727920666f72206e6f6e657860448201527f697374656e7420746f6b656e00000000000000000000000000000000000000006064820152608401610ad3565b60006126808361165f565b9050806001600160a01b0316846001600160a01b031614806126bb5750836001600160a01b03166126b084610ba7565b6001600160a01b0316145b806126eb57506001600160a01b0380821660009081526005602090815260408083209388168352929052205460ff165b949350505050565b826001600160a01b03166127068261165f565b6001600160a01b0316146127825760405162461bcd60e51b815260206004820152602560248201527f4552433732313a207472616e736665722066726f6d20696e636f72726563742060448201527f6f776e65720000000000000000000000000000000000000000000000000000006064820152608401610ad3565b6001600160a01b0382166127fd5760405162461bcd60e51b8152602060048201526024808201527f4552433732313a207472616e7366657220746f20746865207a65726f2061646460448201527f72657373000000000000000000000000000000000000000000000000000000006064820152608401610ad3565b612808838383612c06565b612813600082612570565b6001600160a01b038316600090815260036020526040812080546001929061283c90849061380e565b90915550506001600160a01b038216600090815260036020526040812080546001929061286a9084906137c3565b9091555050600081815260026020526040808220805473ffffffffffffffffffffffffffffffffffffffff19166001600160a01b0386811691821790925591518493918716917fddf252ad1be2c89b69c2b068fc378daa952ba7f163c4a11628f55a4df523b3ef91a4505050565b600a80546001600160a01b0383811673ffffffffffffffffffffffffffffffffffffffff19831681179093556040519116919082907f8be0079c531659141344cd1fd0a4f28419497f9722a3daafe3b4186f6b6457e090600090a35050565b6115a1828260405180602001604052806000815250612cbe565b816001600160a01b0316836001600160a01b031614156129b35760405162461bcd60e51b815260206004820152601960248201527f4552433732313a20617070726f766520746f2063616c6c6572000000000000006044820152606401610ad3565b6001600160a01b03838116600081815260056020908152604080832094871680845294825291829020805460ff191686151590811790915591519182527f17307eab39ab6107e8899845ad3d59bd9653f200f220920489ca2b5937696c31910160405180910390a3505050565b612a2b8484846126f3565b612a3784848484612d47565b611ddc5760405162461bcd60e51b815260206004820152603260248201527f4552433732313a207472616e7366657220746f206e6f6e20455243373231526560448201527f63656976657220696d706c656d656e74657200000000000000000000000000006064820152608401610ad3565b6060600b8054610b2490613851565b606081612af857505060408051808201909152600181527f3000000000000000000000000000000000000000000000000000000000000000602082015290565b8160005b8115612b225780612b0c8161388c565b9150612b1b9050600a836137db565b9150612afc565b60008167ffffffffffffffff811115612b4b57634e487b7160e01b600052604160045260246000fd5b6040519080825280601f01601f191660200182016040528015612b75576020820181803683370190505b5090505b84156126eb57612b8a60018361380e565b9150612b97600a866138a7565b612ba29060306137c3565b60f81b818381518110612bc557634e487b7160e01b600052603260045260246000fd5b60200101907effffffffffffffffffffffffffffffffffffffffffffffffffffffffffffff1916908160001a905350612bff600a866137db565b9450612b79565b6001600160a01b038316612c6157612c5c81600880546000838152600960205260408120829055600182018355919091527ff3f7a9fe364faab93b216da50a3214154f22a0a2b415b23a84c8169e8b636ee30155565b612c84565b816001600160a01b0316836001600160a01b031614612c8457612c848382612eaa565b6001600160a01b038216612c9b57610d7a81612f47565b826001600160a01b0316826001600160a01b031614610d7a57610d7a8282613020565b612cc88383613064565b612cd56000848484612d47565b610d7a5760405162461bcd60e51b815260206004820152603260248201527f4552433732313a207472616e7366657220746f206e6f6e20455243373231526560448201527f63656976657220696d706c656d656e74657200000000000000000000000000006064820152608401610ad3565b60006001600160a01b0384163b15612e9f57604051630a85bd0160e11b81526001600160a01b0385169063150b7a0290612d8b9033908990889088906004016136ff565b602060405180830381600087803b158015612da557600080fd5b505af1925050508015612dd5575060408051601f3d908101601f19168201909252612dd291810190613597565b60015b612e85573d808015612e03576040519150601f19603f3d011682016040523d82523d6000602084013e612e08565b606091505b508051612e7d5760405162461bcd60e51b815260206004820152603260248201527f4552433732313a207472616e7366657220746f206e6f6e20455243373231526560448201527f63656976657220696d706c656d656e74657200000000000000000000000000006064820152608401610ad3565b805181602001fd5b6001600160e01b031916630a85bd0160e11b1490506126eb565b506001949350505050565b60006001612eb7846118e0565b612ec1919061380e565b600083815260076020526040902054909150808214612f14576001600160a01b03841660009081526006602090815260408083208584528252808320548484528184208190558352600790915290208190555b5060009182526007602090815260408084208490556001600160a01b039094168352600681528383209183525290812055565b600854600090612f599060019061380e565b60008381526009602052604081205460088054939450909284908110612f8f57634e487b7160e01b600052603260045260246000fd5b906000526020600020015490508060088381548110612fbe57634e487b7160e01b600052603260045260246000fd5b600091825260208083209091019290925582815260099091526040808220849055858252812055600880548061300457634e487b7160e01b600052603160045260246000fd5b6001900381819060005260206000200160009055905550505050565b600061302b836118e0565b6001600160a01b039093166000908152600660209081526040808320868452825280832085905593825260079052919091209190915550565b6001600160a01b0382166130ba5760405162461bcd60e51b815260206004820181905260248201527f4552433732313a206d696e7420746f20746865207a65726f20616464726573736044820152606401610ad3565b6000818152600260205260409020546001600160a01b03161561311f5760405162461bcd60e51b815260206004820152601c60248201527f4552433732313a20746f6b656e20616c7265616479206d696e746564000000006044820152606401610ad3565b61312b60008383612c06565b6001600160a01b03821660009081526003602052604081208054600192906131549084906137c3565b9091555050600081815260026020526040808220805473ffffffffffffffffffffffffffffffffffffffff19166001600160a01b03861690811790915590518392907fddf252ad1be2c89b69c2b068fc378daa952ba7f163c4a11628f55a4df523b3ef908290a45050565b8280546131cb90613851565b90600052602060002090601f0160209004810192826131ed5760008555613233565b82601f1061320657805160ff1916838001178555613233565b82800160010185558215613233579182015b82811115613233578251825591602001919060010190613218565b5061323f929150613243565b5090565b5b8082111561323f5760008155600101613244565b600067ffffffffffffffff831115613272576132726138e7565b613285601f8401601f1916602001613792565b905082815283838301111561329957600080fd5b828260208301376000602084830101529392505050565b80356001600160a01b03811681146132c757600080fd5b919050565b6000602082840312156132dd578081fd5b610f03826132b0565b600080604083850312156132f8578081fd5b613301836132b0565b915061330f602084016132b0565b90509250929050565b60008060006060848603121561332c578081fd5b613335846132b0565b9250613343602085016132b0565b9150604084013590509250925092565b60008060008060808587031215613368578081fd5b613371856132b0565b935061337f602086016132b0565b925060408501359150606085013567ffffffffffffffff8111156133a1578182fd5b8501601f810187136133b1578182fd5b6133c087823560208401613258565b91505092959194509250565b600080604083850312156133de578182fd5b6133e7836132b0565b915060208301356133f7816138fd565b809150509250929050565b60008060408385031215613414578182fd5b61341d836132b0565b946020939093013593505050565b6000806020838503121561343d578182fd5b823567ffffffffffffffff80821115613454578384fd5b818501915085601f830112613467578384fd5b813581811115613475578485fd5b8660208260051b8501011115613489578485fd5b60209290920196919550909350505050565b600060208083850312156134ad578182fd5b825167ffffffffffffffff808211156134c4578384fd5b818501915085601f8301126134d7578384fd5b8151818111156134e9576134e96138e7565b8060051b91506134fa848301613792565b8181528481019084860184860187018a1015613514578788fd5b8795505b83861015613536578051835260019590950194918601918601613518565b5098975050505050505050565b600060208284031215613554578081fd5b8135610f03816138fd565b600060208284031215613570578081fd5b8151610f03816138fd565b60006020828403121561358c578081fd5b8135610f038161390b565b6000602082840312156135a8578081fd5b8151610f038161390b565b6000602082840312156135c4578081fd5b813567ffffffffffffffff8111156135da578182fd5b8201601f810184136135ea578182fd5b6126eb84823560208401613258565b60006020828403121561360a578081fd5b5035919050565b60008151808452613629816020860160208601613825565b601f01601f19169290920160200192915050565b6000845160206136508285838a01613825565b8551918401916136638184848a01613825565b85549201918390600181811c908083168061367f57607f831692505b85831081141561369d57634e487b7160e01b88526022600452602488fd5b8080156136b157600181146136c2576136ee565b60ff198516885283880195506136ee565b60008b815260209020895b858110156136e65781548a8201529084019088016136cd565b505083880195505b50939b9a5050505050505050505050565b60006001600160a01b038087168352808616602084015250836040830152608060608301526137316080830184613611565b9695505050505050565b6020808252825182820181905260009190848201906040850190845b8181101561377357835183529284019291840191600101613757565b50909695505050505050565b602081526000610f036020830184613611565b604051601f8201601f1916810167ffffffffffffffff811182821017156137bb576137bb6138e7565b604052919050565b600082198211156137d6576137d66138bb565b500190565b6000826137ea576137ea6138d1565b500490565b6000816000190483118215151615613809576138096138bb565b500290565b600082821015613820576138206138bb565b500390565b60005b83811015613840578181015183820152602001613828565b83811115611ddc5750506000910152565b600181811c9082168061386557607f821691505b6020821081141561388657634e487b7160e01b600052602260045260246000fd5b50919050565b60006000198214156138a0576138a06138bb565b5060010190565b6000826138b6576138b66138d1565b500690565b634e487b7160e01b600052601160045260246000fd5b634e487b7160e01b600052601260045260246000fd5b634e487b7160e01b600052604160045260246000fd5b801515811461121357600080fd5b6001600160e01b03198116811461121357600080fdfea264697066735822122028bb186895531797c2ae3df72bc5338bd0f3ccff87308e2175ff54bd7f6eefd064736f6c6343000804003368747470733a2f2f626866696c65732e6d7970696e6174612e636c6f75642f697066732f516d5a3943694e6a465438456e654778777277457442676962354a524465384643743553557574354d63736838642f",
  "immutableReferences": {},
  "source": "// SPDX-License-Identifier: MIT\npragma solidity >=0.4.22 <0.9.0;\n\nimport \"@openzeppelin/contracts/token/ERC721/extensions/ERC721Enumerable.sol\";\nimport \"@openzeppelin/contracts/access/Ownable.sol\";\nimport \"@openzeppelin/contracts/token/ERC1155/ERC1155.sol\";\n//import \"@openzeppelin/contracts/security/PullPayment.sol\";\n\nabstract contract Market {\n    function isMember(address user) public view virtual returns (bool);\n    function addToEscrow(address _address) external virtual payable;\n}\n\nabstract contract BrotherHood {\n      function walletOfOwner(address _owner) public view virtual returns (uint256[] memory);\n}\n\n\ncontract DrBoosGhosts is\nERC721Enumerable,\nOwnable\n{\n    using Strings for uint256;\n\n    string public baseURI;\n    string public baseExtension = \".json\";\n\n    /*\n    uint256 public publicCost = 390 ether;\n    uint256 public EbisusbayMemberPrice = 340 ether;\n    uint256 public whiteListCost = 290 ether;\n    */\n    uint256 public publicCost = 3 ether;\n    uint256 public EbisusbayMemberPrice = 2 ether;\n    uint256 public whiteListCost = 1 ether;\n\n    //Restrictions\n\n    /*\n    uint256 public maxSupply = 2111;\n    uint256 public reservedNft = 80;\n    */\n\n    uint256 public maxSupply = 100;\n    uint256 public reservedNft = 10;\n\n\n    uint256 public maxMintAmount = 25;\n    uint256 public nftPerAddressLimit = 100;\n    uint256 public maxNFTforWLUser = 3;\n    uint256 public reservedMintedNFT = 0;\n\n    //Ebisusbay FEE : 10%\n    uint256 public ebisusbayFee = 10;\n    // EbisusbayWallet\n    address public ebisusbayWallet = 0x454cfAa623A629CC0b4017aEb85d54C42e91479d;\n\n    //Mainnet\n    /*\n    address public marketAddress =\n        0x7a3CdB2364f92369a602CAE81167d0679087e6a3;.\n            address public BHAddress = 0xd0062DEb460Eac0cB7cE77C312F8aa58378b6d8a;\n    */\n\n    //Testnet\n  address public marketAddress =\n        0xb3cB12e7F9e442ef799a2B7e92f65ab8710d7b27;\n    address public BHAddress = 0x570455059613388F01A5275C40BdcD2Cb5390966;\n\n\n    bool public paused = false;\n    bool public onlyWhitelisted = false;\n\n    struct Infos {\n        uint256 regularCost;\n        uint256 memberCost;\n        uint256 whitelistCost;\n        uint256 maxSupply;\n        uint256 totalSupply;\n        uint256 maxMintPerAddress;\n        uint256 maxMintPerTx;\n    }\n\n    mapping(address => uint256) public addressMintedBalance;\n    mapping(address => bool) public whitelistedAddresses;\n    mapping(address => uint256) public whitelistedBalance;\n\n    constructor()\n    ERC721('DrBoosGhosts', 'DBG')\n    {\n        setBaseURI('https://bhfiles.mypinata.cloud/ipfs/QmZ9CiNjFT8EneGxwrwEtBgib5JRDe8FCt5SUut5Mcsh8d/');\n    }\n\n    function getInfo() public view returns (Infos memory) {\n        Infos memory allInfos;\n        allInfos.regularCost = publicCost;\n        allInfos.memberCost = EbisusbayMemberPrice;\n        allInfos.whitelistCost = whiteListCost;\n        allInfos.maxSupply = maxSupply;\n        allInfos.totalSupply = totalSupply();\n        allInfos.maxMintPerAddress = nftPerAddressLimit;\n        allInfos.maxMintPerTx = maxMintAmount;\n\n        return allInfos;\n    }\n\n    // internal\n    function _baseURI() internal view virtual override returns (string memory) {\n        return baseURI;\n    }\n\n    // Mint Function for White-List and Public Sale\n    event MintEvent(address indexed _from, uint256 indexed mintAmount);\n\n    function mint(uint256 _mintAmount) public payable {\n        require(!paused, \"contract is paused\");\n        uint256 supply = totalSupply();\n        require(_mintAmount > 0, \"need to mint at least 1 NFT\");\n        require(\n            _mintAmount <= maxMintAmount,\n            \"max mint amount per session exceeded\"\n        );\n        require((supply + _mintAmount + reservedNft - reservedMintedNFT) <= maxSupply, \"max NFT limit exceeded\");\n\n        if (msg.sender != owner()) {\n            if (onlyWhitelisted == true) {\n                require(verifyUser(msg.sender), \"not in whitelisted\");\n            }\n\n            uint256 ownerMintedCount = addressMintedBalance[msg.sender];\n            require(\n                (ownerMintedCount + _mintAmount) <= nftPerAddressLimit,\n                \"max NFT per address exceeded\"\n            );\n\n            if (verifyUser(msg.sender)) {\n                require( (_mintAmount + whitelistedBalance[msg.sender]) <= maxNFTforWLUser, \"no credit left\");\n                require(msg.value >= whiteListCost * _mintAmount, \"insufficient funds\");\n\n                      for (uint256 i = 1; i <= _mintAmount; i++) {\n                    addressMintedBalance[msg.sender]++;\n                    whitelistedBalance[msg.sender]++;\n                    _safeMint(msg.sender, supply + reservedNft + i - reservedMintedNFT );\n                }\n\n\n            } else {\n\n                uint256 amountFee;\n\n                if (isEbisusBayMember(msg.sender)) {\n                    require(\n                        msg.value >= (EbisusbayMemberPrice * _mintAmount),\n                        \"insufficient funds\"\n                    );\n                    amountFee =\n                        ((EbisusbayMemberPrice * _mintAmount) * ebisusbayFee) /\n                        100;\n                } else {\n\n                    require(\n                        msg.value >= (publicCost * _mintAmount),\n                        \"insufficient funds\"\n                    );\n                    amountFee =\n                        ((publicCost * _mintAmount) * ebisusbayFee) /\n                        100;\n             }\n\n\n                for (uint256 i = 1; i <= _mintAmount; i++) {\n                    addressMintedBalance[msg.sender]++;\n                  _safeMint(msg.sender, supply + reservedNft + i - reservedMintedNFT );\n                }\n                 emit MintEvent(msg.sender, _mintAmount);\n                  Market market = Market(marketAddress);\n                  market.addToEscrow{value : amountFee}(ebisusbayWallet);\n            }\n\n\n        } else {\n                require(reservedNft - (reservedMintedNFT + _mintAmount) >= 0, \"All Reserved NFT Minted\");\n                for (uint256 i = 1; i <= _mintAmount; i++) {\n                    addressMintedBalance[msg.sender]++;\n                   reservedMintedNFT++;\n                    _safeMint(msg.sender, reservedMintedNFT);\n\n                }\n        }\n\n    }\n\n\n    function walletOfOwner(address _owner)\n        public\n        view\n        returns (uint256[] memory)\n    {\n        require(_owner != address(0), \"not address 0\");\n        uint256 ownerTokenCount = balanceOf(_owner);\n        uint256[] memory tokenIds = new uint256[](ownerTokenCount);\n        for (uint256 i; i < ownerTokenCount; i++) {\n            tokenIds[i] = tokenOfOwnerByIndex(_owner, i);\n        }\n        return tokenIds;\n    }\n\n    function tokenURI(uint256 tokenId)\n        public\n        view\n        virtual\n        override\n        returns (string memory)\n    {\n        require(\n            _exists(tokenId),\n            \"ERC721Metadata: URI query for nonexistent token\"\n        );\n\n        string memory currentBaseURI = _baseURI();\n        return\n            bytes(currentBaseURI).length > 0\n                ? string(\n                    abi.encodePacked(\n                        currentBaseURI,\n                        tokenId.toString(),\n                        baseExtension\n                    )\n                )\n                : \"\";\n    }\n\n    function setBaseURI(string memory _newBaseURI) public onlyOwner {\n        baseURI = _newBaseURI;\n    }\n\n    function setBaseExtension(string memory _newBaseExtension)\n        public\n        onlyOwner\n    {\n        baseExtension = _newBaseExtension;\n    }\n\n    function pause(bool _state) public onlyOwner {\n        paused = _state;\n    }\n\n    function withdraw() public payable onlyOwner {\n        (bool os, ) = payable(owner()).call{value: address(this).balance}(\"\");\n        require(os);\n    }\n\n    /// @dev Overridden in order to make it an onlyOwner function\n  /*function withdrawPayments(address payable payee) public override onlyOwner virtual {\n      super.withdrawPayments(payee);\n  }*/\n\n    // White List\n\n    function setAllowList(address[] calldata addresses) public onlyOwner {\n        for (uint256 i = 0; i < addresses.length; i++) {\n            require(addresses[i] != address(0), \"Invalid address\");\n            whitelistedAddresses[addresses[i]] = true;\n        }\n    }\n\n    function verifyUser(address _whitelistedAddress)\n        public\n        view\n        returns (bool)\n    {\n        require(_whitelistedAddress != address(0), \"not address 0\");\n\n\n        \n        BrotherHood BH = BrotherHood(BHAddress);\n        uint256 BHWallet  = BH.walletOfOwner(_whitelistedAddress).length;\n\n          if(whitelistedAddresses[_whitelistedAddress] || BHWallet > 0 ){\n            if(whitelistedBalance[_whitelistedAddress] < maxNFTforWLUser){\n                return true;\n            }\n        }\n        \n       return false;\n    }\n\n    function setOnlyWhitelisted(bool _state) public onlyOwner {\n        onlyWhitelisted = _state;\n    }\n\n    // End of White List;\n\n    function getBalance() public view onlyOwner returns (uint256) {\n        return address(this).balance;\n    }\n\n    // Ebisusbay Member\n\n   function isEbisusBayMember(address _address) public view returns (bool) {\n       Market market = Market(marketAddress);\n       return market.isMember(_address);\n    }\n\n    function setMemberShipAddress(address _address) public onlyOwner {\n        marketAddress = _address;\n    }\n\n    //Get NFT Cost\n    function mintCost(address _address) public view returns (uint256) {\n        require(_address != address(0), \"not address 0\");\n        if (verifyUser(_address)) {\n            return whiteListCost;\n        }\n\n        if (isEbisusBayMember(_address)) {\n            return EbisusbayMemberPrice;\n        }\n\n        return publicCost;\n    }\n\n    //Math\n\n    // Can Mint Function\n    \n    function canMint(address _address) public view returns(uint256){\n           require(_address != address(0), \"not address 0\");\n\n             uint256 supply = totalSupply();\n          require(supply >= 0, \"no nft left\");\n\n           if(verifyUser(_address)){\n               return maxNFTforWLUser - whitelistedBalance[_address];\n           }\n\n            uint256 _amount;\n            uint256 ownerMintedCount = addressMintedBalance[_address];\n\n            if(maxMintAmount < ( nftPerAddressLimit - ownerMintedCount) ){\n                _amount = maxMintAmount;\n            } else {\n                _amount =  (nftPerAddressLimit - ownerMintedCount);\n            }\n\n            uint256 _nftLeft;\n            if(maxSupply == supply){\n                _nftLeft = 0;\n            } else {\n                _nftLeft = maxSupply + reservedMintedNFT - (supply + reservedNft) ;\n            }\n\n            if(_nftLeft < _amount){\n                return _nftLeft;\n            } else {\n                return _amount;\n            }        \n    }\n}",
  "sourcePath": "/home/romain/dev/crypto/MOA/my-app/contracts/DBG.sol",
  "compiler": {
    "name": "solc",
    "version": "0.8.4+commit.c7e474f2.Emscripten.clang"
  },
  "schemaVersion": "3.4.6",
  "updatedAt": "2022-05-21T17:21:32.575Z",
  "networkType": "ethereum",
  "devdoc": {
    "kind": "dev",
    "methods": {
      "approve(address,uint256)": {
        "details": "See {IERC721-approve}."
      },
      "balanceOf(address)": {
        "details": "See {IERC721-balanceOf}."
      },
      "getApproved(uint256)": {
        "details": "See {IERC721-getApproved}."
      },
      "isApprovedForAll(address,address)": {
        "details": "See {IERC721-isApprovedForAll}."
      },
      "name()": {
        "details": "See {IERC721Metadata-name}."
      },
      "owner()": {
        "details": "Returns the address of the current owner."
      },
      "ownerOf(uint256)": {
        "details": "See {IERC721-ownerOf}."
      },
      "renounceOwnership()": {
        "details": "Leaves the contract without owner. It will not be possible to call `onlyOwner` functions anymore. Can only be called by the current owner. NOTE: Renouncing ownership will leave the contract without an owner, thereby removing any functionality that is only available to the owner."
      },
      "safeTransferFrom(address,address,uint256)": {
        "details": "See {IERC721-safeTransferFrom}."
      },
      "safeTransferFrom(address,address,uint256,bytes)": {
        "details": "See {IERC721-safeTransferFrom}."
      },
      "setAllowList(address[])": {
        "details": "Overridden in order to make it an onlyOwner function"
      },
      "setApprovalForAll(address,bool)": {
        "details": "See {IERC721-setApprovalForAll}."
      },
      "supportsInterface(bytes4)": {
        "details": "See {IERC165-supportsInterface}."
      },
      "symbol()": {
        "details": "See {IERC721Metadata-symbol}."
      },
      "tokenByIndex(uint256)": {
        "details": "See {IERC721Enumerable-tokenByIndex}."
      },
      "tokenOfOwnerByIndex(address,uint256)": {
        "details": "See {IERC721Enumerable-tokenOfOwnerByIndex}."
      },
      "tokenURI(uint256)": {
        "details": "See {IERC721Metadata-tokenURI}."
      },
      "totalSupply()": {
        "details": "See {IERC721Enumerable-totalSupply}."
      },
      "transferFrom(address,address,uint256)": {
        "details": "See {IERC721-transferFrom}."
      },
      "transferOwnership(address)": {
        "details": "Transfers ownership of the contract to a new account (`newOwner`). Can only be called by the current owner."
      }
    },
    "version": 1
  },
  "userdoc": {
    "kind": "user",
    "methods": {},
    "version": 1
  }
}